{
  "contractName": "NFTFactory",
  "abi": [
    {
      "inputs": [],
      "stateMutability": "nonpayable",
      "type": "constructor"
    },
    {
      "anonymous": false,
      "inputs": [
        {
          "indexed": true,
          "internalType": "address",
          "name": "owner",
          "type": "address"
        },
        {
          "indexed": true,
          "internalType": "address",
          "name": "approved",
          "type": "address"
        },
        {
          "indexed": true,
          "internalType": "uint256",
          "name": "tokenId",
          "type": "uint256"
        }
      ],
      "name": "Approval",
      "type": "event"
    },
    {
      "anonymous": false,
      "inputs": [
        {
          "indexed": true,
          "internalType": "address",
          "name": "owner",
          "type": "address"
        },
        {
          "indexed": true,
          "internalType": "address",
          "name": "operator",
          "type": "address"
        },
        {
          "indexed": false,
          "internalType": "bool",
          "name": "approved",
          "type": "bool"
        }
      ],
      "name": "ApprovalForAll",
      "type": "event"
    },
    {
      "anonymous": false,
      "inputs": [
        {
          "indexed": true,
          "internalType": "address",
          "name": "from",
          "type": "address"
        },
        {
          "indexed": true,
          "internalType": "address",
          "name": "to",
          "type": "address"
        },
        {
          "indexed": true,
          "internalType": "uint256",
          "name": "tokenId",
          "type": "uint256"
        }
      ],
      "name": "Transfer",
      "type": "event"
    },
    {
      "inputs": [
        {
          "internalType": "address",
          "name": "to",
          "type": "address"
        },
        {
          "internalType": "uint256",
          "name": "tokenId",
          "type": "uint256"
        }
      ],
      "name": "approve",
      "outputs": [],
      "stateMutability": "nonpayable",
      "type": "function"
    },
    {
      "inputs": [
        {
          "internalType": "address",
          "name": "owner",
          "type": "address"
        }
      ],
      "name": "balanceOf",
      "outputs": [
        {
          "internalType": "uint256",
          "name": "",
          "type": "uint256"
        }
      ],
      "stateMutability": "view",
      "type": "function",
      "constant": true
    },
    {
      "inputs": [
        {
          "internalType": "uint256",
          "name": "tokenId",
          "type": "uint256"
        }
      ],
      "name": "getApproved",
      "outputs": [
        {
          "internalType": "address",
          "name": "",
          "type": "address"
        }
      ],
      "stateMutability": "view",
      "type": "function",
      "constant": true
    },
    {
      "inputs": [
        {
          "internalType": "address",
          "name": "owner",
          "type": "address"
        },
        {
          "internalType": "address",
          "name": "operator",
          "type": "address"
        }
      ],
      "name": "isApprovedForAll",
      "outputs": [
        {
          "internalType": "bool",
          "name": "",
          "type": "bool"
        }
      ],
      "stateMutability": "view",
      "type": "function",
      "constant": true
    },
    {
      "inputs": [],
      "name": "name",
      "outputs": [
        {
          "internalType": "string",
          "name": "",
          "type": "string"
        }
      ],
      "stateMutability": "view",
      "type": "function",
      "constant": true
    },
    {
      "inputs": [
        {
          "internalType": "uint256",
          "name": "tokenId",
          "type": "uint256"
        }
      ],
      "name": "ownerOf",
      "outputs": [
        {
          "internalType": "address",
          "name": "",
          "type": "address"
        }
      ],
      "stateMutability": "view",
      "type": "function",
      "constant": true
    },
    {
      "inputs": [
        {
          "internalType": "address",
          "name": "from",
          "type": "address"
        },
        {
          "internalType": "address",
          "name": "to",
          "type": "address"
        },
        {
          "internalType": "uint256",
          "name": "tokenId",
          "type": "uint256"
        }
      ],
      "name": "safeTransferFrom",
      "outputs": [],
      "stateMutability": "nonpayable",
      "type": "function"
    },
    {
      "inputs": [
        {
          "internalType": "address",
          "name": "from",
          "type": "address"
        },
        {
          "internalType": "address",
          "name": "to",
          "type": "address"
        },
        {
          "internalType": "uint256",
          "name": "tokenId",
          "type": "uint256"
        },
        {
          "internalType": "bytes",
          "name": "_data",
          "type": "bytes"
        }
      ],
      "name": "safeTransferFrom",
      "outputs": [],
      "stateMutability": "nonpayable",
      "type": "function"
    },
    {
      "inputs": [
        {
          "internalType": "address",
          "name": "operator",
          "type": "address"
        },
        {
          "internalType": "bool",
          "name": "approved",
          "type": "bool"
        }
      ],
      "name": "setApprovalForAll",
      "outputs": [],
      "stateMutability": "nonpayable",
      "type": "function"
    },
    {
      "inputs": [
        {
          "internalType": "bytes4",
          "name": "interfaceId",
          "type": "bytes4"
        }
      ],
      "name": "supportsInterface",
      "outputs": [
        {
          "internalType": "bool",
          "name": "",
          "type": "bool"
        }
      ],
      "stateMutability": "view",
      "type": "function",
      "constant": true
    },
    {
      "inputs": [],
      "name": "symbol",
      "outputs": [
        {
          "internalType": "string",
          "name": "",
          "type": "string"
        }
      ],
      "stateMutability": "view",
      "type": "function",
      "constant": true
    },
    {
      "inputs": [
        {
          "internalType": "uint256",
          "name": "tokenId",
          "type": "uint256"
        }
      ],
      "name": "tokenURI",
      "outputs": [
        {
          "internalType": "string",
          "name": "",
          "type": "string"
        }
      ],
      "stateMutability": "view",
      "type": "function",
      "constant": true
    },
    {
      "inputs": [
        {
          "internalType": "address",
          "name": "from",
          "type": "address"
        },
        {
          "internalType": "address",
          "name": "to",
          "type": "address"
        },
        {
          "internalType": "uint256",
          "name": "tokenId",
          "type": "uint256"
        }
      ],
      "name": "transferFrom",
      "outputs": [],
      "stateMutability": "nonpayable",
      "type": "function"
    },
    {
      "inputs": [
        {
          "internalType": "string",
          "name": "tokenURI",
          "type": "string"
        }
      ],
      "name": "createToken",
      "outputs": [
        {
          "internalType": "uint256",
          "name": "",
          "type": "uint256"
        }
      ],
      "stateMutability": "nonpayable",
      "type": "function"
    }
  ],
  "bytecode": "0x60806040523480156200001157600080fd5b506040518060400160405280601081526020017f426c6f636b636861696e204752503134000000000000000000000000000000008152506040518060400160405280600581526020017f424b475052000000000000000000000000000000000000000000000000000000815250816000908051906020019062000096929190620000b8565b508060019080519060200190620000af929190620000b8565b505050620001cd565b828054620000c69062000197565b90600052602060002090601f016020900481019282620000ea576000855562000136565b82601f106200010557805160ff191683800117855562000136565b8280016001018555821562000136579182015b828111156200013557825182559160200191906001019062000118565b5b50905062000145919062000149565b5090565b5b80821115620001645760008160009055506001016200014a565b5090565b7f4e487b7100000000000000000000000000000000000000000000000000000000600052602260045260246000fd5b60006002820490506001821680620001b057607f821691505b60208210811415620001c757620001c662000168565b5b50919050565b612c0880620001dd6000396000f3fe608060405234801561001057600080fd5b50600436106100ea5760003560e01c80636352211e1161008c578063a22cb46511610066578063a22cb4651461026f578063b88d4fde1461028b578063c87b56dd146102a7578063e985e9c5146102d7576100ea565b80636352211e146101f157806370a082311461022157806395d89b4114610251576100ea565b8063095ea7b3116100c8578063095ea7b31461016d57806323b872dd1461018957806342842e0e146101a557806345576f94146101c1576100ea565b806301ffc9a7146100ef57806306fdde031461011f578063081812fc1461013d575b600080fd5b6101096004803603810190610104919061197d565b610307565b60405161011691906119c5565b60405180910390f35b6101276103e9565b6040516101349190611a79565b60405180910390f35b61015760048036038101906101529190611ad1565b61047b565b6040516101649190611b3f565b60405180910390f35b61018760048036038101906101829190611b86565b610500565b005b6101a3600480360381019061019e9190611bc6565b610618565b005b6101bf60048036038101906101ba9190611bc6565b610678565b005b6101db60048036038101906101d69190611d4e565b610698565b6040516101e89190611da6565b60405180910390f35b61020b60048036038101906102069190611ad1565b6106cf565b6040516102189190611b3f565b60405180910390f35b61023b60048036038101906102369190611dc1565b610781565b6040516102489190611da6565b60405180910390f35b610259610839565b6040516102669190611a79565b60405180910390f35b61028960048036038101906102849190611e1a565b6108cb565b005b6102a560048036038101906102a09190611efb565b610a4c565b005b6102c160048036038101906102bc9190611ad1565b610aae565b6040516102ce9190611a79565b60405180910390f35b6102f160048036038101906102ec9190611f7e565b610c00565b6040516102fe91906119c5565b60405180910390f35b60007f80ac58cd000000000000000000000000000000000000000000000000000000007bffffffffffffffffffffffffffffffffffffffffffffffffffffffff1916827bffffffffffffffffffffffffffffffffffffffffffffffffffffffff191614806103d257507f5b5e139f000000000000000000000000000000000000000000000000000000007bffffffffffffffffffffffffffffffffffffffffffffffffffffffff1916827bffffffffffffffffffffffffffffffffffffffffffffffffffffffff1916145b806103e257506103e182610c94565b5b9050919050565b6060600080546103f890611fed565b80601f016020809104026020016040519081016040528092919081815260200182805461042490611fed565b80156104715780601f1061044657610100808354040283529160200191610471565b820191906000526020600020905b81548152906001019060200180831161045457829003601f168201915b5050505050905090565b600061048682610cfe565b6104c5576040517f08c379a00000000000000000000000000000000000000000000000000000000081526004016104bc90612091565b60405180910390fd5b6004600083815260200190815260200160002060009054906101000a900473ffffffffffffffffffffffffffffffffffffffff169050919050565b600061050b826106cf565b90508073ffffffffffffffffffffffffffffffffffffffff168373ffffffffffffffffffffffffffffffffffffffff16141561057c576040517f08c379a000000000000000000000000000000000000000000000000000000000815260040161057390612123565b60405180910390fd5b8073ffffffffffffffffffffffffffffffffffffffff1661059b610d6a565b73ffffffffffffffffffffffffffffffffffffffff1614806105ca57506105c9816105c4610d6a565b610c00565b5b610609576040517f08c379a0000000000000000000000000000000000000000000000000000000008152600401610600906121b5565b60405180910390fd5b6106138383610d72565b505050565b610629610623610d6a565b82610e2b565b610668576040517f08c379a000000000000000000000000000000000000000000000000000000000815260040161065f90612247565b60405180910390fd5b610673838383610f09565b505050565b61069383838360405180602001604052806000815250610a4c565b505050565b60006106a46007611165565b60006106b0600761117b565b90506106bc3382611189565b6106c681846111a7565b80915050919050565b6000806002600084815260200190815260200160002060009054906101000a900473ffffffffffffffffffffffffffffffffffffffff169050600073ffffffffffffffffffffffffffffffffffffffff168173ffffffffffffffffffffffffffffffffffffffff161415610778576040517f08c379a000000000000000000000000000000000000000000000000000000000815260040161076f906122d9565b60405180910390fd5b80915050919050565b60008073ffffffffffffffffffffffffffffffffffffffff168273ffffffffffffffffffffffffffffffffffffffff1614156107f2576040517f08c379a00000000000000000000000000000000000000000000000000000000081526004016107e99061236b565b60405180910390fd5b600360008373ffffffffffffffffffffffffffffffffffffffff1673ffffffffffffffffffffffffffffffffffffffff168152602001908152602001600020549050919050565b60606001805461084890611fed565b80601f016020809104026020016040519081016040528092919081815260200182805461087490611fed565b80156108c15780601f10610896576101008083540402835291602001916108c1565b820191906000526020600020905b8154815290600101906020018083116108a457829003601f168201915b5050505050905090565b6108d3610d6a565b73ffffffffffffffffffffffffffffffffffffffff168273ffffffffffffffffffffffffffffffffffffffff161415610941576040517f08c379a0000000000000000000000000000000000000000000000000000000008152600401610938906123d7565b60405180910390fd5b806005600061094e610d6a565b73ffffffffffffffffffffffffffffffffffffffff1673ffffffffffffffffffffffffffffffffffffffff16815260200190815260200160002060008473ffffffffffffffffffffffffffffffffffffffff1673ffffffffffffffffffffffffffffffffffffffff16815260200190815260200160002060006101000a81548160ff0219169083151502179055508173ffffffffffffffffffffffffffffffffffffffff166109fb610d6a565b73ffffffffffffffffffffffffffffffffffffffff167f17307eab39ab6107e8899845ad3d59bd9653f200f220920489ca2b5937696c3183604051610a4091906119c5565b60405180910390a35050565b610a5d610a57610d6a565b83610e2b565b610a9c576040517f08c379a0000000000000000000000000000000000000000000000000000000008152600401610a9390612247565b60405180910390fd5b610aa88484848461121b565b50505050565b6060610ab982610cfe565b610af8576040517f08c379a0000000000000000000000000000000000000000000000000000000008152600401610aef90612469565b60405180910390fd5b6000600660008481526020019081526020016000208054610b1890611fed565b80601f0160208091040260200160405190810160405280929190818152602001828054610b4490611fed565b8015610b915780601f10610b6657610100808354040283529160200191610b91565b820191906000526020600020905b815481529060010190602001808311610b7457829003601f168201915b505050505090506000610ba2611277565b9050600081511415610bb8578192505050610bfb565b600082511115610bed578082604051602001610bd59291906124c5565b60405160208183030381529060405292505050610bfb565b610bf68461128e565b925050505b919050565b6000600560008473ffffffffffffffffffffffffffffffffffffffff1673ffffffffffffffffffffffffffffffffffffffff16815260200190815260200160002060008373ffffffffffffffffffffffffffffffffffffffff1673ffffffffffffffffffffffffffffffffffffffff16815260200190815260200160002060009054906101000a900460ff16905092915050565b60007f01ffc9a7000000000000000000000000000000000000000000000000000000007bffffffffffffffffffffffffffffffffffffffffffffffffffffffff1916827bffffffffffffffffffffffffffffffffffffffffffffffffffffffff1916149050919050565b60008073ffffffffffffffffffffffffffffffffffffffff166002600084815260200190815260200160002060009054906101000a900473ffffffffffffffffffffffffffffffffffffffff1673ffffffffffffffffffffffffffffffffffffffff1614159050919050565b600033905090565b816004600083815260200190815260200160002060006101000a81548173ffffffffffffffffffffffffffffffffffffffff021916908373ffffffffffffffffffffffffffffffffffffffff160217905550808273ffffffffffffffffffffffffffffffffffffffff16610de5836106cf565b73ffffffffffffffffffffffffffffffffffffffff167f8c5be1e5ebec7d5bd14f71427d1e84f3dd0314c0f7b2291e5b200ac8c7c3b92560405160405180910390a45050565b6000610e3682610cfe565b610e75576040517f08c379a0000000000000000000000000000000000000000000000000000000008152600401610e6c9061255b565b60405180910390fd5b6000610e80836106cf565b90508073ffffffffffffffffffffffffffffffffffffffff168473ffffffffffffffffffffffffffffffffffffffff161480610eef57508373ffffffffffffffffffffffffffffffffffffffff16610ed78461047b565b73ffffffffffffffffffffffffffffffffffffffff16145b80610f005750610eff8185610c00565b5b91505092915050565b8273ffffffffffffffffffffffffffffffffffffffff16610f29826106cf565b73ffffffffffffffffffffffffffffffffffffffff1614610f7f576040517f08c379a0000000000000000000000000000000000000000000000000000000008152600401610f76906125ed565b60405180910390fd5b600073ffffffffffffffffffffffffffffffffffffffff168273ffffffffffffffffffffffffffffffffffffffff161415610fef576040517f08c379a0000000000000000000000000000000000000000000000000000000008152600401610fe69061267f565b60405180910390fd5b610ffa838383611335565b611005600082610d72565b6001600360008573ffffffffffffffffffffffffffffffffffffffff1673ffffffffffffffffffffffffffffffffffffffff168152602001908152602001600020600082825461105591906126ce565b925050819055506001600360008473ffffffffffffffffffffffffffffffffffffffff1673ffffffffffffffffffffffffffffffffffffffff16815260200190815260200160002060008282546110ac9190612702565b92505081905550816002600083815260200190815260200160002060006101000a81548173ffffffffffffffffffffffffffffffffffffffff021916908373ffffffffffffffffffffffffffffffffffffffff160217905550808273ffffffffffffffffffffffffffffffffffffffff168473ffffffffffffffffffffffffffffffffffffffff167fddf252ad1be2c89b69c2b068fc378daa952ba7f163c4a11628f55a4df523b3ef60405160405180910390a4505050565b6001816000016000828254019250508190555050565b600081600001549050919050565b6111a382826040518060200160405280600081525061133a565b5050565b6111b082610cfe565b6111ef576040517f08c379a00000000000000000000000000000000000000000000000000000000081526004016111e6906127ca565b60405180910390fd5b8060066000848152602001908152602001600020908051906020019061121692919061186e565b505050565b611226848484610f09565b61123284848484611395565b611271576040517f08c379a00000000000000000000000000000000000000000000000000000000081526004016112689061285c565b60405180910390fd5b50505050565b606060405180602001604052806000815250905090565b606061129982610cfe565b6112d8576040517f08c379a00000000000000000000000000000000000000000000000000000000081526004016112cf906128ee565b60405180910390fd5b60006112e2611277565b90506000815111611302576040518060200160405280600081525061132d565b8061130c8461152c565b60405160200161131d9291906124c5565b6040516020818303038152906040525b915050919050565b505050565b611344838361168d565b6113516000848484611395565b611390576040517f08c379a00000000000000000000000000000000000000000000000000000000081526004016113879061285c565b60405180910390fd5b505050565b60006113b68473ffffffffffffffffffffffffffffffffffffffff1661185b565b1561151f578373ffffffffffffffffffffffffffffffffffffffff1663150b7a026113df610d6a565b8786866040518563ffffffff1660e01b81526004016114019493929190612963565b602060405180830381600087803b15801561141b57600080fd5b505af192505050801561144c57506040513d601f19601f8201168201806040525081019061144991906129c4565b60015b6114cf573d806000811461147c576040519150601f19603f3d011682016040523d82523d6000602084013e611481565b606091505b506000815114156114c7576040517f08c379a00000000000000000000000000000000000000000000000000000000081526004016114be9061285c565b60405180910390fd5b805181602001fd5b63150b7a0260e01b7bffffffffffffffffffffffffffffffffffffffffffffffffffffffff1916817bffffffffffffffffffffffffffffffffffffffffffffffffffffffff191614915050611524565b600190505b949350505050565b60606000821415611574576040518060400160405280600181526020017f30000000000000000000000000000000000000000000000000000000000000008152509050611688565b600082905060005b600082146115a657808061158f906129f1565b915050600a8261159f9190612a69565b915061157c565b60008167ffffffffffffffff8111156115c2576115c1611c23565b5b6040519080825280601f01601f1916602001820160405280156115f45781602001600182028036833780820191505090505b5090505b600085146116815760018261160d91906126ce565b9150600a8561161c9190612a9a565b60306116289190612702565b60f81b81838151811061163e5761163d612acb565b5b60200101907effffffffffffffffffffffffffffffffffffffffffffffffffffffffffffff1916908160001a905350600a8561167a9190612a69565b94506115f8565b8093505050505b919050565b600073ffffffffffffffffffffffffffffffffffffffff168273ffffffffffffffffffffffffffffffffffffffff1614156116fd576040517f08c379a00000000000000000000000000000000000000000000000000000000081526004016116f490612b46565b60405180910390fd5b61170681610cfe565b15611746576040517f08c379a000000000000000000000000000000000000000000000000000000000815260040161173d90612bb2565b60405180910390fd5b61175260008383611335565b6001600360008473ffffffffffffffffffffffffffffffffffffffff1673ffffffffffffffffffffffffffffffffffffffff16815260200190815260200160002060008282546117a29190612702565b92505081905550816002600083815260200190815260200160002060006101000a81548173ffffffffffffffffffffffffffffffffffffffff021916908373ffffffffffffffffffffffffffffffffffffffff160217905550808273ffffffffffffffffffffffffffffffffffffffff16600073ffffffffffffffffffffffffffffffffffffffff167fddf252ad1be2c89b69c2b068fc378daa952ba7f163c4a11628f55a4df523b3ef60405160405180910390a45050565b600080823b905060008111915050919050565b82805461187a90611fed565b90600052602060002090601f01602090048101928261189c57600085556118e3565b82601f106118b557805160ff19168380011785556118e3565b828001600101855582156118e3579182015b828111156118e25782518255916020019190600101906118c7565b5b5090506118f091906118f4565b5090565b5b8082111561190d5760008160009055506001016118f5565b5090565b6000604051905090565b600080fd5b600080fd5b60007fffffffff0000000000000000000000000000000000000000000000000000000082169050919050565b61195a81611925565b811461196557600080fd5b50565b60008135905061197781611951565b92915050565b6000602082840312156119935761199261191b565b5b60006119a184828501611968565b91505092915050565b60008115159050919050565b6119bf816119aa565b82525050565b60006020820190506119da60008301846119b6565b92915050565b600081519050919050565b600082825260208201905092915050565b60005b83811015611a1a5780820151818401526020810190506119ff565b83811115611a29576000848401525b50505050565b6000601f19601f8301169050919050565b6000611a4b826119e0565b611a5581856119eb565b9350611a658185602086016119fc565b611a6e81611a2f565b840191505092915050565b60006020820190508181036000830152611a938184611a40565b905092915050565b6000819050919050565b611aae81611a9b565b8114611ab957600080fd5b50565b600081359050611acb81611aa5565b92915050565b600060208284031215611ae757611ae661191b565b5b6000611af584828501611abc565b91505092915050565b600073ffffffffffffffffffffffffffffffffffffffff82169050919050565b6000611b2982611afe565b9050919050565b611b3981611b1e565b82525050565b6000602082019050611b546000830184611b30565b92915050565b611b6381611b1e565b8114611b6e57600080fd5b50565b600081359050611b8081611b5a565b92915050565b60008060408385031215611b9d57611b9c61191b565b5b6000611bab85828601611b71565b9250506020611bbc85828601611abc565b9150509250929050565b600080600060608486031215611bdf57611bde61191b565b5b6000611bed86828701611b71565b9350506020611bfe86828701611b71565b9250506040611c0f86828701611abc565b9150509250925092565b600080fd5b600080fd5b7f4e487b7100000000000000000000000000000000000000000000000000000000600052604160045260246000fd5b611c5b82611a2f565b810181811067ffffffffffffffff82111715611c7a57611c79611c23565b5b80604052505050565b6000611c8d611911565b9050611c998282611c52565b919050565b600067ffffffffffffffff821115611cb957611cb8611c23565b5b611cc282611a2f565b9050602081019050919050565b82818337600083830152505050565b6000611cf1611cec84611c9e565b611c83565b905082815260208101848484011115611d0d57611d0c611c1e565b5b611d18848285611ccf565b509392505050565b600082601f830112611d3557611d34611c19565b5b8135611d45848260208601611cde565b91505092915050565b600060208284031215611d6457611d6361191b565b5b600082013567ffffffffffffffff811115611d8257611d81611920565b5b611d8e84828501611d20565b91505092915050565b611da081611a9b565b82525050565b6000602082019050611dbb6000830184611d97565b92915050565b600060208284031215611dd757611dd661191b565b5b6000611de584828501611b71565b91505092915050565b611df7816119aa565b8114611e0257600080fd5b50565b600081359050611e1481611dee565b92915050565b60008060408385031215611e3157611e3061191b565b5b6000611e3f85828601611b71565b9250506020611e5085828601611e05565b9150509250929050565b600067ffffffffffffffff821115611e7557611e74611c23565b5b611e7e82611a2f565b9050602081019050919050565b6000611e9e611e9984611e5a565b611c83565b905082815260208101848484011115611eba57611eb9611c1e565b5b611ec5848285611ccf565b509392505050565b600082601f830112611ee257611ee1611c19565b5b8135611ef2848260208601611e8b565b91505092915050565b60008060008060808587031215611f1557611f1461191b565b5b6000611f2387828801611b71565b9450506020611f3487828801611b71565b9350506040611f4587828801611abc565b925050606085013567ffffffffffffffff811115611f6657611f65611920565b5b611f7287828801611ecd565b91505092959194509250565b60008060408385031215611f9557611f9461191b565b5b6000611fa385828601611b71565b9250506020611fb485828601611b71565b9150509250929050565b7f4e487b7100000000000000000000000000000000000000000000000000000000600052602260045260246000fd5b6000600282049050600182168061200557607f821691505b6020821081141561201957612018611fbe565b5b50919050565b7f4552433732313a20617070726f76656420717565727920666f72206e6f6e657860008201527f697374656e7420746f6b656e0000000000000000000000000000000000000000602082015250565b600061207b602c836119eb565b91506120868261201f565b604082019050919050565b600060208201905081810360008301526120aa8161206e565b9050919050565b7f4552433732313a20617070726f76616c20746f2063757272656e74206f776e6560008201527f7200000000000000000000000000000000000000000000000000000000000000602082015250565b600061210d6021836119eb565b9150612118826120b1565b604082019050919050565b6000602082019050818103600083015261213c81612100565b9050919050565b7f4552433732313a20617070726f76652063616c6c6572206973206e6f74206f7760008201527f6e6572206e6f7220617070726f76656420666f7220616c6c0000000000000000602082015250565b600061219f6038836119eb565b91506121aa82612143565b604082019050919050565b600060208201905081810360008301526121ce81612192565b9050919050565b7f4552433732313a207472616e736665722063616c6c6572206973206e6f74206f60008201527f776e6572206e6f7220617070726f766564000000000000000000000000000000602082015250565b60006122316031836119eb565b915061223c826121d5565b604082019050919050565b6000602082019050818103600083015261226081612224565b9050919050565b7f4552433732313a206f776e657220717565727920666f72206e6f6e657869737460008201527f656e7420746f6b656e0000000000000000000000000000000000000000000000602082015250565b60006122c36029836119eb565b91506122ce82612267565b604082019050919050565b600060208201905081810360008301526122f2816122b6565b9050919050565b7f4552433732313a2062616c616e636520717565727920666f7220746865207a6560008201527f726f206164647265737300000000000000000000000000000000000000000000602082015250565b6000612355602a836119eb565b9150612360826122f9565b604082019050919050565b6000602082019050818103600083015261238481612348565b9050919050565b7f4552433732313a20617070726f766520746f2063616c6c657200000000000000600082015250565b60006123c16019836119eb565b91506123cc8261238b565b602082019050919050565b600060208201905081810360008301526123f0816123b4565b9050919050565b7f45524337323155524953746f726167653a2055524920717565727920666f722060008201527f6e6f6e6578697374656e7420746f6b656e000000000000000000000000000000602082015250565b60006124536031836119eb565b915061245e826123f7565b604082019050919050565b6000602082019050818103600083015261248281612446565b9050919050565b600081905092915050565b600061249f826119e0565b6124a98185612489565b93506124b98185602086016119fc565b80840191505092915050565b60006124d18285612494565b91506124dd8284612494565b91508190509392505050565b7f4552433732313a206f70657261746f7220717565727920666f72206e6f6e657860008201527f697374656e7420746f6b656e0000000000000000000000000000000000000000602082015250565b6000612545602c836119eb565b9150612550826124e9565b604082019050919050565b6000602082019050818103600083015261257481612538565b9050919050565b7f4552433732313a207472616e73666572206f6620746f6b656e2074686174206960008201527f73206e6f74206f776e0000000000000000000000000000000000000000000000602082015250565b60006125d76029836119eb565b91506125e28261257b565b604082019050919050565b60006020820190508181036000830152612606816125ca565b9050919050565b7f4552433732313a207472616e7366657220746f20746865207a65726f2061646460008201527f7265737300000000000000000000000000000000000000000000000000000000602082015250565b60006126696024836119eb565b91506126748261260d565b604082019050919050565b600060208201905081810360008301526126988161265c565b9050919050565b7f4e487b7100000000000000000000000000000000000000000000000000000000600052601160045260246000fd5b60006126d982611a9b565b91506126e483611a9b565b9250828210156126f7576126f661269f565b5b828203905092915050565b600061270d82611a9b565b915061271883611a9b565b9250827fffffffffffffffffffffffffffffffffffffffffffffffffffffffffffffffff0382111561274d5761274c61269f565b5b828201905092915050565b7f45524337323155524953746f726167653a2055524920736574206f66206e6f6e60008201527f6578697374656e7420746f6b656e000000000000000000000000000000000000602082015250565b60006127b4602e836119eb565b91506127bf82612758565b604082019050919050565b600060208201905081810360008301526127e3816127a7565b9050919050565b7f4552433732313a207472616e7366657220746f206e6f6e20455243373231526560008201527f63656976657220696d706c656d656e7465720000000000000000000000000000602082015250565b60006128466032836119eb565b9150612851826127ea565b604082019050919050565b6000602082019050818103600083015261287581612839565b9050919050565b7f4552433732314d657461646174613a2055524920717565727920666f72206e6f60008201527f6e6578697374656e7420746f6b656e0000000000000000000000000000000000602082015250565b60006128d8602f836119eb565b91506128e38261287c565b604082019050919050565b60006020820190508181036000830152612907816128cb565b9050919050565b600081519050919050565b600082825260208201905092915050565b60006129358261290e565b61293f8185612919565b935061294f8185602086016119fc565b61295881611a2f565b840191505092915050565b60006080820190506129786000830187611b30565b6129856020830186611b30565b6129926040830185611d97565b81810360608301526129a4818461292a565b905095945050505050565b6000815190506129be81611951565b92915050565b6000602082840312156129da576129d961191b565b5b60006129e8848285016129af565b91505092915050565b60006129fc82611a9b565b91507fffffffffffffffffffffffffffffffffffffffffffffffffffffffffffffffff821415612a2f57612a2e61269f565b5b600182019050919050565b7f4e487b7100000000000000000000000000000000000000000000000000000000600052601260045260246000fd5b6000612a7482611a9b565b9150612a7f83611a9b565b925082612a8f57612a8e612a3a565b5b828204905092915050565b6000612aa582611a9b565b9150612ab083611a9b565b925082612ac057612abf612a3a565b5b828206905092915050565b7f4e487b7100000000000000000000000000000000000000000000000000000000600052603260045260246000fd5b7f4552433732313a206d696e7420746f20746865207a65726f2061646472657373600082015250565b6000612b306020836119eb565b9150612b3b82612afa565b602082019050919050565b60006020820190508181036000830152612b5f81612b23565b9050919050565b7f4552433732313a20746f6b656e20616c7265616479206d696e74656400000000600082015250565b6000612b9c601c836119eb565b9150612ba782612b66565b602082019050919050565b60006020820190508181036000830152612bcb81612b8f565b905091905056fea2646970667358221220a64153b0dd88acca352ed630fa96b556929c266ace9258c66542da12e9587af964736f6c63430008090033",
  "immutableReferences": {},
  "source": "//SPDX-License-Identifier: Unlicense\r\npragma solidity ^0.8.0;\r\n\r\nimport \"@openzeppelin/contracts/utils/Counters.sol\";\r\nimport \"@openzeppelin/contracts/token/ERC721/extensions/ERC721URIStorage.sol\";\r\nimport \"@openzeppelin/contracts/token/ERC721/ERC721.sol\";\r\n\r\ncontract NFTFactory is ERC721URIStorage { \r\n\r\n    using Counters for Counters.Counter; \r\n    Counters.Counter private _tokenIds;\r\n\r\n    //@dev This will Name the Token Created\r\n    constructor() ERC721(\"Blockchain GRP14\", \"BKGPR\") {\r\n    }\r\n    //@dev Function for minting\r\n    function createToken(string memory tokenURI) public returns (uint) {\r\n        _tokenIds.increment();\r\n        uint256 newItemId = _tokenIds.current();\r\n        _safeMint(msg.sender, newItemId);\r\n        _setTokenURI(newItemId, tokenURI);\r\n        return newItemId;\r\n    }\r\n}\r\n",
  "sourcePath": "C:\\Users\\MITCH-PC\\Documents\\bitbucket-blockchain-proj\\contracts\\NFTFactory.sol",
  "compiler": {
    "name": "solc",
    "version": "0.8.9+commit.e5eed63a.Emscripten.clang"
  },
  "schemaVersion": "3.4.3",
  "updatedAt": "2021-11-07T00:43:08.704Z",
  "networkType": "ethereum",
  "devdoc": {
    "kind": "dev",
    "methods": {
      "approve(address,uint256)": {
        "details": "See {IERC721-approve}."
      },
      "balanceOf(address)": {
        "details": "See {IERC721-balanceOf}."
      },
      "getApproved(uint256)": {
        "details": "See {IERC721-getApproved}."
      },
      "isApprovedForAll(address,address)": {
        "details": "See {IERC721-isApprovedForAll}."
      },
      "name()": {
        "details": "See {IERC721Metadata-name}."
      },
      "ownerOf(uint256)": {
        "details": "See {IERC721-ownerOf}."
      },
      "safeTransferFrom(address,address,uint256)": {
        "details": "See {IERC721-safeTransferFrom}."
      },
      "safeTransferFrom(address,address,uint256,bytes)": {
        "details": "See {IERC721-safeTransferFrom}."
      },
      "setApprovalForAll(address,bool)": {
        "details": "See {IERC721-setApprovalForAll}."
      },
      "supportsInterface(bytes4)": {
        "details": "See {IERC165-supportsInterface}."
      },
      "symbol()": {
        "details": "See {IERC721Metadata-symbol}."
      },
      "tokenURI(uint256)": {
        "details": "See {IERC721Metadata-tokenURI}."
      },
      "transferFrom(address,address,uint256)": {
        "details": "See {IERC721-transferFrom}."
      }
    },
    "version": 1
  },
  "userdoc": {
    "kind": "user",
    "methods": {},
    "version": 1
  }
}